:1000000002050C0406010C01000B0D01010C080097
:1000100000000C01010C09000906020E050C0C0081
:1000200004030A090B000C0100000A0E000E0C016B
:100030000405080406060C01000B0D01010C080064
:1000400000000C01010C09000107020E030F0D0155
:10005000050C090000000C0F030C090004000C0142
:10006000030D0D000A000701070C080003040C0132
:1000700004060D00050C09050A010C01050D090017
:10008000010C0100050D090006010C01050D090018
:10009000030C0800050D09000A0E0C01050D0900EE
:1000A00008080701050D0900090C0709050D0900DD
:1000B0000E0F0C09050D090002070008050D0900C7
:1000C00002000C010D040D000401070904080701DA
:1000D000050D0900060B0701050D09000F0E020EA4
:1000E000050D0900050F0D010C040D0004070D019D
:1000F000070E020E0E050D010507060F070E050C73
:1001000000000000000000000000000000000000EF
:1001100000000000000000000000000000000000DF
:1001200000000000000000000000000000000000CF
:1001300000000000000000000000000000000000BF
:1001400000000000000000000000000000000000AF
:10015000000000000000000000000000000000009F
:10016000000000000000000000000000000000008F
:10017000000000000000000000000000000000007F
:10018000000000000000000000000000000000006F
:10019000000000000000000000000000000000005F
:1001A000000000000000000000000000000000004F
:1001B000000000000000000000000000000000003F
:1001C000000000000000000000000000000000002F
:1001D000000000000000000000000000000000001F
:1001E000000000000000000000000000000000000F
:1001F00000000000000000000000000000000000FF
:00000001FF
