:10000000050500050E070C01000B0D01010C080091
:1000100000000C01010C09000305080E050C0C0082
:100020000C020A0909000D0100000A0E000E0C0165
:10003000010C080000000D01070F0C01010C080065
:1000400000000D01000B0D01030F0C0102000D005B
:10005000020C0D01080C0D00000301010F0F020E30
:100060000C0F0B09090C09040E000D07090C0709F8
:100070000E0F0C09010F09000F0F030E02000C01F7
:10008000090C090808000D01090C07090E0F0C09DD
:10009000090C07010D000D09010F09000000020EF7
:1000A00002000C0102040F00030C09050E0F0D01E4
:1000B000030C090C02000D01080C0D00090C0709C6
:1000C0000E0F0C09090C070104000C0904000D01B6
:1000D000010D0C010E050D010507060F090C0905A0
:1000E0000E0F0D010600070100000C0100000C01BD
:1000F00000000C0100000C0100000C0107050E03BC
:1001000000000000000000000000000000000000EF
:1001100000000000000000000000000000000000DF
:1001200000000000000000000000000000000000CF
:1001300000000000000000000000000000000000BF
:1001400000000000000000000000000000000000AF
:10015000000000000000000000000000000000009F
:10016000000000000000000000000000000000008F
:10017000000000000000000000000000000000007F
:10018000000000000000000000000000000000006F
:10019000000000000000000000000000000000005F
:1001A000000000000000000000000000000000004F
:1001B000000000000000000000000000000000003F
:1001C000000000000000000000000000000000002F
:1001D000000000000000000000000000000000001F
:1001E000000000000000000000000000000000000F
:1001F00000000000000000000000000000000000FF
:00000001FF
