:100000000A0506040E070C01000B0D01010C080087
:1000100000000C01010C090000000C01050C0C0093
:1000200004030A0903000C0100000A0E000E0C0173
:10003000010C0D000D020D0102000701020807016D
:100040000204070102080101020C01010200010182
:10005000030C070103000701020C07010308070155
:100060000204010103040701020C0D010E0F0F0130
:10007000050C0C000F010D010008060100000D0029
:1000800002040C0002080D00040C0C0005000D0019
:10009000010C0D00010C09070A010C0102040808FB
:1000A00003000F01030C0D000D000C010B0F0D01DF
:1000B000010C0D000B000D01010C0D000B000D01DA
:1000C00001040C000D0D0C010404030704060C03CD
:1000D00001050C0703070F0600020C010E050D01B8
:1000E0000106060F0E050D010901060F0E050D0193
:1000F0000104060F0E050D010507060F0F0D090C73
:1001000000000000000000000000000000000000EF
:1001100000000000000000000000000000000000DF
:1001200000000000000000000000000000000000CF
:1001300000000000000000000000000000000000BF
:1001400000000000000000000000000000000000AF
:10015000000000000000000000000000000000009F
:10016000000000000000000000000000000000008F
:10017000000000000000000000000000000000007F
:10018000000000000000000000000000000000006F
:10019000000000000000000000000000000000005F
:1001A000000000000000000000000000000000004F
:1001B000000000000000000000000000000000003F
:1001C000000000000000000000000000000000002F
:1001D000000000000000000000000000000000001F
:1001E000000000000000000000000000000000000F
:1001F00000000000000000000000000000000000FF
:00000001FF
