:10000000040408050E070C01000B0D01010C08008B
:1000100000000C01010C09000104000E050C0C008D
:100020000C020B0903000C0100000A0E000E0C016B
:10003000070C08000000080104000601000B07017E
:1000400004000C0102000701070F050108020C0162
:100050000003070104000C01010F070102000C015D
:10006000030C090004000401070F05010C010C0139
:1000700002000D00070F050108010C010200070135
:10008000090C07090E0F0C090205010802000C01FA
:10009000030C090300000E01080F0F0906000701F9
:1000A0000F0C05010F0C05010F0C0501010F0709CD
:1000B00004000C010C0F0D09000F0D0806000C01C7
:1000C000020C0D0106080D01000B0D01010C0800CA
:1000D00000000D010F0C0D010E050D010507060FA7
:1000E00000000C0100000C0100000C0100000C01DC
:1000F00000000C0100000C0100000C010C060005C2
:1001000000000000000000000000000000000000EF
:1001100000000000000000000000000000000000DF
:1001200000000000000000000000000000000000CF
:1001300000000000000000000000000000000000BF
:1001400000000000000000000000000000000000AF
:10015000000000000000000000000000000000009F
:10016000000000000000000000000000000000008F
:10017000000000000000000000000000000000007F
:10018000000000000000000000000000000000006F
:10019000000000000000000000000000000000005F
:1001A000000000000000000000000000000000004F
:1001B000000000000000000000000000000000003F
:1001C000000000000000000000000000000000002F
:1001D000000000000000000000000000000000001F
:1001E000000000000000000000000000000000000F
:1001F00000000000000000000000000000000000FF
:00000001FF
