:1000000005050E050E070C01000B0D01010C080083
:1000100000000C01010C09000104020E050C0C008B
:1000200002020A0903000C0100000A0E000E0C0176
:1000300002000D00030C09050F0F020E020C0D014A
:10004000080C0D0005000D00050C09050E070D013B
:10005000050C09070A050C01030C08000C0F0D0123
:10006000030409080904090807000D09080C0D0A12
:100070000F0F0E01020806090B0F0C090A040008F5
:1000800002000C01090F0D01090C070105000C0904
:10009000020006010A0C0C0B00000F01060007010C
:1000A00004000D0104070C0102000C010E050D01F6
:1000B0000507060F010A02000D00090104010808E6
:1000C00000000C0100000C0100000C0100000C01FC
:1000D00000000C0100000C0100000C0100000C01EC
:1000E00000000C0100000C0100000C0100000C01DC
:1000F00000000C0100000C0100000C01030F0903BB
:1001000000000000000000000000000000000000EF
:1001100000000000000000000000000000000000DF
:1001200000000000000000000000000000000000CF
:1001300000000000000000000000000000000000BF
:1001400000000000000000000000000000000000AF
:10015000000000000000000000000000000000009F
:10016000000000000000000000000000000000008F
:10017000000000000000000000000000000000007F
:10018000000000000000000000000000000000006F
:10019000000000000000000000000000000000005F
:1001A000000000000000000000000000000000004F
:1001B000000000000000000000000000000000003F
:1001C000000000000000000000000000000000002F
:1001D000000000000000000000000000000000001F
:1001E000000000000000000000000000000000000F
:1001F00000000000000000000000000000000000FF
:00000001FF
