:200000000F0F020E050C080008000C0104000D01030C0C0001030D0102020D01080F02001A
:2000200000000C0103000C0100000A0E000E0C01030C0C0009020D0100020D0100000C011F
:2000400001000801030C0C0005020C0104020C0100000C010D0F0201050C0D00030C0C00EF
:200060000F010C0100020C010D0F020004000C01030C08000E000D01010F070902000C01C3
:2000800002000C09030C0D000F020C01050C07010D0E0E01000C0601060F0F01020C06017F
:2000A000040F0F01040C06010C0E0E01030C0C000B000C0102020D01080F020000000C0172
:2000C000030C09000A000C01000C06010E0F0E01020C07010C0F0E010B0C0C01030D060137
:2000E0000808090802080601090C070909000D09010F070902000C0103000C010E0304082E
:200100000000000000000000000000000000000000000000000000000000000000000000DF
:200120000000000000000000000000000000000000000000000000000000000000000000BF
:2001400000000000000000000000000000000000000000000000000000000000000000009F
:2001600000000000000000000000000000000000000000000000000000000000000000007F
:2001800000000000000000000000000000000000000000000000000000000000000000005F
:2001A00000000000000000000000000000000000000000000000000000000000000000003F
:2001C00000000000000000000000000000000000000000000000000000000000000000001F
:2001E0000000000000000000000000000000000000000000000000000000000000000000FF
:00000001FF
