:20000000040405040E0F0C01000B0D01010C080000000C01010C09000904040E050C0C0018
:2000200000030B0905000D0100000A0E000E0C01000005010200040100000C01030C0C002E
:20004000030C080F08000C01090C090000020401090C0902000004010D0F0F01050C0900D5
:20006000010C0C0101070D0004000C010003070106000C01050D090002000C0108080900DF
:2000800005000E01090C0902000004010D0F0F010B0F0C01030C0D000F000D010C00070187
:2000A0000404090409040805020502050404090400020C04090404040305050503040D059C
:2000C0000C040C030004090504040E0405040F0402050D030C030D03030D0701050C080052
:2000E0000E010C0107000D010E050D010507060F00000C0100000C0100000C010D0F09063B
:200100000000000000000000000000000000000000000000000000000000000000000000DF
:200120000000000000000000000000000000000000000000000000000000000000000000BF
:2001400000000000000000000000000000000000000000000000000000000000000000009F
:2001600000000000000000000000000000000000000000000000000000000000000000007F
:2001800000000000000000000000000000000000000000000000000000000000000000005F
:2001A00000000000000000000000000000000000000000000000000000000000000000003F
:2001C00000000000000000000000000000000000000000000000000000000000000000001F
:2001E0000000000000000000000000000000000000000000000000000000000000000000FF
:00000001FF
