:10000000030501050E070C01000B0D01010C080092
:1000100000000C01010C09000305080E050C0C0082
:1000200002030B0909000D0100000A0E000E0C016D
:100030000800080D00000C0100000C0100000E017A
:1000400004000C0D0A000E0100000C0102000D005E
:10005000030C0C00050C090002010E01040A050046
:10006000050C07090C0F0F01020C0101020C010124
:10007000000C0D0702040C00030E0601090C070911
:100080000E0F0C090E01070100000C010B0C0800FB
:1000900008000E0102040F080E0F0C090B040C00DF
:1000A000090C07090E0F0C09090C09020A000C01C2
:1000B000060E0E010D0C090000000D0D02040709CB
:1000C000060F0C090B040C00090C07090E0F0C0994
:1000D000090C070101000D09060007010D0C0900BC
:1000E00000000F0F02040709060F0C09070D0D0190
:1000F0000E050D010507060F00000C01070D0C0D84
:1001000000000000000000000000000000000000EF
:1001100000000000000000000000000000000000DF
:1001200000000000000000000000000000000000CF
:1001300000000000000000000000000000000000BF
:1001400000000000000000000000000000000000AF
:10015000000000000000000000000000000000009F
:10016000000000000000000000000000000000008F
:10017000000000000000000000000000000000007F
:10018000000000000000000000000000000000006F
:10019000000000000000000000000000000000005F
:1001A000000000000000000000000000000000004F
:1001B000000000000000000000000000000000003F
:1001C000000000000000000000000000000000002F
:1001D000000000000000000000000000000000001F
:1001E000000000000000000000000000000000000F
:1001F00000000000000000000000000000000000FF
:00000001FF
