:20000000050501050E070C01000B0D01010C080000000C01010C09000104040E050C0C0029
:2000200002000B090B000D0100000A0E000E0C010E050D010507060F03000C030F030C03E9
:200040000100040100000D0100000C0100080C0900000C09030C0D0002040C00020D04000C
:20006000050C0900000004010B0C0601090F0D0904080F020D0F0E010A0C0400040C0101A1
:20008000080F0D0903040C0002010601030C06090C0F0D090E0907090E030D090E09070952
:2000A0000C030D090E0D050808040C090E0D05080C040D090E010D0004040C0903050C0037
:2000C00003050C00030D080000040C090B040C00090C0701020A04030B0C06010F0F0C093F
:2000E0000F0D07090A000C090A0D0E01030F07090F0F030E020E0D090600070107010E00F4
:200100000000000000000000000000000000000000000000000000000000000000000000DF
:200120000000000000000000000000000000000000000000000000000000000000000000BF
:2001400000000000000000000000000000000000000000000000000000000000000000009F
:2001600000000000000000000000000000000000000000000000000000000000000000007F
:2001800000000000000000000000000000000000000000000000000000000000000000005F
:2001A00000000000000000000000000000000000000000000000000000000000000000003F
:2001C00000000000000000000000000000000000000000000000000000000000000000001F
:2001E0000000000000000000000000000000000000000000000000000000000000000000FF
:00000001FF
