:200000000F0F020E080F0C09030C0D000D000D01050F0D01000B090004000C01000B0900F4
:2000200006000C0103000C0100000A0E000E0C01090C090500020C01090C07090F0F0C09E0
:200040000A040C01010F090A02000D0102000C010A000F01010F090A04000C0102000C01E6
:200060000B000F01040007010D0C070108000E010108080004000D010E050D0106000C01CA
:20008000010F0902090D0E0106000C010C0C0E010003070902000C0102070D0102000C019E
:2000A0000700030107000B0107000B0106000D0100000C0100000C0100000C0100000C01C7
:2000C00000000C0100000C0100000C0100000C0100000C0100000C0100000C0100000C01B8
:2000E00000000C0100000C0100000C0100000C0100000C0100000C0100000C0100040C078E
:200100000000000000000000000000000000000000000000000000000000000000000000DF
:200120000000000000000000000000000000000000000000000000000000000000000000BF
:2001400000000000000000000000000000000000000000000000000000000000000000009F
:2001600000000000000000000000000000000000000000000000000000000000000000007F
:2001800000000000000000000000000000000000000000000000000000000000000000005F
:2001A00000000000000000000000000000000000000000000000000000000000000000003F
:2001C00000000000000000000000000000000000000000000000000000000000000000001F
:2001E0000000000000000000000000000000000000000000000000000000000000000000FF
:00000001FF
