:100000000000060F0000060F00000C090F0F030E82
:100010000600060F0600060F01040C0101040D0185
:10002000020007010208070102040701020801019A
:10003000020C010102000101030C0701030007018A
:10004000020C070103080701020401010304070170
:10005000020C0D010E0F0F01030C08000000060F2B
:1000600002080F00020809030E0F0F0102080B0718
:100070000208070F02080505020801040A000C0126
:10008000020803020A000C010F0F0F01030C0D0000
:1000900002050D01030C09000205060F0A050D01FA
:1000A0000A040D010005060F070F07090D0A020ECD
:1000B0000E0F0F0102090803030D06090E0F0F01B1
:1000C0000B0C06090E0F0D09010C0D000D060C019D
:1000D000010C0D0007050C0101000C0005050C01C9
:1000E00001080C00010C0D0001050D0101040C00BC
:1000F0000F040D0105080D00010C0D0001060C0197
:10010000030C080800040C01030C0D000D060C0183
:10011000070C0C0005060C01020C0C0103060C0177
:1001200006090D030002000509020E0103000C037D
:1001300000000F01050D070104080C0006090D035E
:100140000102080507020E0106090D030002080559
:100150000B010E0106090D030D000F0402000E0134
:1001600004000D010C040D01050C080000000A0E2E
:1001700007010F0200080C01020D0F010300080324
:1001800005000F0105000E0707010D030000040E16
:10019000090D0F01070F0C01010C0D0003010D01EA
:1001A00004000D01050C0B0804010A0E04040109EA
:1001B0000404010904070C0108000C01010C0D00E6
:1001C0000B000C010C000D000B0C0D01010C0D00BF
:1001D00007000C0104000D0004000601070C0C01CF
:1001E00007040C0005040F000D0B0D0100000601B3
:1001F00002000601030C0D000B020D0106090D0B98
:100200000C000D010B010F01030C080F08030C017A
:10021000030C080708000C010E0E0B09000C00016E
:10022000000C0001000C000100080C04010F0C017F
:10023000030C080008010C01000B0D010004000173
:1002400002040009030C0D000D010D01030C080050
:1002500006080C03000C000103000F010204000952
:100260000D0F0A09050F0D01020C0C01030C0D0006
:1002700003010D010005090300070D010F0F020E18
:10028000030C08000A000400030C0D000D000C0113
:10029000030C0E07070F0B0102000609030C080CE4
:1002A0000C000D01090F0C010F0D07090107020ECB
:1002B0000C0F0D0902000609030C0A0C0307020EBD
:1002C0000F0D07090507020E0C0F0D090E090D0889
:1002D0000707020E030C080D00080C09020D0903A4
:1002E00002070D010F0F020E050C09000600060F94
:1002F000030C080001040C0103040F000A000601AE
:100300000B040808020806010B040808020C060189
:100310000B040A030C000F010208060103050A0D75
:100320000306040303050A0D08000E0103040C0074
:10033000050401000B0F020E0B050C080B070C0C3B
:1003400000000C010A0E0C0307000F0100000C0155
:10035000030D070108000F0105080F0306000F0138
:1003600002080D0100000C0106080E00030C080035
:10037000090A060F070D06010A0C040100000C0112
:10038000020F040104000C01050C090000000C0F11
:100390000E01070106000C010F0D0900030D060FE9
:1003A00004000C01070C080003040C01050E0701F2
:1003B000020007010A0C0D00030D0701040C0D03D8
:1003C0000D0F0E09020007010B0007010A0C0D07B3
:1003D000030D070104000E01040C0D030B0F0E09A1
:1003E00004070C0102000C01040C0400000C0C00BA
:1003F0000600060100000C0101030C0502070A0BB0
:00000001FF
