:100000000E010D00010C0C010E050D00030C0C017E
:100010000F010D00050C0C010E010701070C0C016E
:100020000F0D090400000C090F0F020E0F0D09023D
:1000300000000C050F0F020E03000E010E09070150
:10004000070C0C010E0107010F0F020E01000D013C
:1000500000000C010600060105000C090300090957
:1000600002000E090100090101000F0900000C0146
:10007000060C060102000D0903000E010000090133
:1000800001000B0100000C0106000001020008093C
:1000900000000B0900000F0100000C01070C080014
:1000A0000A0A060B01080C0000000D0002040C00F7
:1000B00002080D00040C0C0005000D0001040D0FDA
:1000C0000100090101000F0100000C010204000100
:1000D00000000B090100090100000C0102080D07D6
:1000E0000208070102040701000C0D0701000B09BB
:1000F00001000B0100000C010400000103000D04CD
:1001000003040D070208070103000A09000C070198
:100110000100090100000C010004060101000F09A3
:1001200000000C0100000D0500040D0700000B018C
:1001300001000B0100000C01000C0D0106050D0370
:100140000405090404000E0105000D0202000A0165
:100150000404070100000F0100000C01010C080855
:100160000100030E00000D0900000C010200020650
:10017000000007010008070102000206010C060149
:1001800002000E01010C070101000F0100000C012B
:10019000070C08000F0F0C01070F050102000C01EE
:1001A00000000C010F0C0803000D060F01000F01E9
:1001B00000000C010F0C0800020E060F06080D01CE
:1001C00000000C0106020601070E08000C0E060FC7
:1001D00002000C0100000C010E050D01020F060FBC
:1001E00000000C01050C090000000C0F0E010701B6
:1001F00006000C010F0D09000100060F04000C01A0
:10020000070C08000F0F0C01050E07010F0D090068
:100210000D0C060F0C040C010E0107010E040C015D
:10022000030C0900070E020E0B0C09000C000C0158
:10023000030C080000000E0100080C0008000C0070
:10024000010D060104000D030D0F0E0900080C003E
:1002500000000F0000000D0301000F0100000C0161
:100260000005060104000D03090F0F090000050039
:100270000004070100000D0301000F0100000C0144
:1002800002000C03080F0F010E000601050C080008
:100290000A0A060B0B0C090008010C01010C0800EE
:1002A00000000401030C080000000E010404060114
:1002B00009000C00080406010804060104000E03EE
:1002C00001000F0100000C010E0101010B0E020ED6
:1002D00003000A0900000C0101030D010E040609C8
:1002E000020F0E0103000C0106070D010808020EA3
:1002F000010D0601020903060B0C090004020C01A2
:10030000010C0800000000010607060900000D01AD
:10031000040E0E01030C080000000E0100080C0082
:1003200008000C00010D060104000D030D0F0E095D
:10033000010C090002000D010E0006010F0D07015E
:10034000070C0C0100010E010F0C080008010C0144
:1003500000080C00080406010804060108000C034C
:1003600001000F0100000C01010D06010E01010149
:100370000B0E020E03000A0900000C0109000C011B
:1003800004000D03030F0F090B080F000E000601F8
:100390000005030605000C0100000C0103000C0120
:1003A0000B0C09000C000C01010C0A00010C0C01E3
:1003B000010C0B00030C0C01050C0A00050C0C01D0
:1003C00004070C0102000C01050C0A000907020ECB
:1003D000050C08050000020E050C080400000A0EBA
:1003E000010C0A080907030E00080001000A0D01AC
:1003F0000C040C0100000C0100030E050C020703A5
:00000001FF
